{
  "_format": "hh-sol-artifact-1",
  "contractName": "Pool",
  "sourceName": "contracts/Pool.sol",
  "abi": [
    {
      "inputs": [
        {
          "internalType": "address",
          "name": "token0",
          "type": "address"
        },
        {
          "internalType": "address",
          "name": "token1",
          "type": "address"
        }
      ],
      "stateMutability": "nonpayable",
      "type": "constructor"
    },
    {
      "inputs": [
        {
          "internalType": "address",
          "name": "spender",
          "type": "address"
        },
        {
          "internalType": "uint256",
          "name": "allowance",
          "type": "uint256"
        },
        {
          "internalType": "uint256",
          "name": "needed",
          "type": "uint256"
        }
      ],
      "name": "ERC20InsufficientAllowance",
      "type": "error"
    },
    {
      "inputs": [
        {
          "internalType": "address",
          "name": "sender",
          "type": "address"
        },
        {
          "internalType": "uint256",
          "name": "balance",
          "type": "uint256"
        },
        {
          "internalType": "uint256",
          "name": "needed",
          "type": "uint256"
        }
      ],
      "name": "ERC20InsufficientBalance",
      "type": "error"
    },
    {
      "inputs": [
        {
          "internalType": "address",
          "name": "approver",
          "type": "address"
        }
      ],
      "name": "ERC20InvalidApprover",
      "type": "error"
    },
    {
      "inputs": [
        {
          "internalType": "address",
          "name": "receiver",
          "type": "address"
        }
      ],
      "name": "ERC20InvalidReceiver",
      "type": "error"
    },
    {
      "inputs": [
        {
          "internalType": "address",
          "name": "sender",
          "type": "address"
        }
      ],
      "name": "ERC20InvalidSender",
      "type": "error"
    },
    {
      "inputs": [
        {
          "internalType": "address",
          "name": "spender",
          "type": "address"
        }
      ],
      "name": "ERC20InvalidSpender",
      "type": "error"
    },
    {
      "inputs": [],
      "name": "ReentrancyGuardReentrantCall",
      "type": "error"
    },
    {
      "anonymous": false,
      "inputs": [
        {
          "indexed": true,
          "internalType": "uint256",
          "name": "lpToken",
          "type": "uint256"
        },
        {
          "indexed": false,
          "internalType": "address",
          "name": "token0",
          "type": "address"
        },
        {
          "indexed": true,
          "internalType": "uint256",
          "name": "amount0",
          "type": "uint256"
        },
        {
          "indexed": false,
          "internalType": "address",
          "name": "token1",
          "type": "address"
        },
        {
          "indexed": true,
          "internalType": "uint256",
          "name": "amount1",
          "type": "uint256"
        }
      ],
      "name": "AddedLiquidity",
      "type": "event"
    },
    {
      "anonymous": false,
      "inputs": [
        {
          "indexed": true,
          "internalType": "address",
          "name": "owner",
          "type": "address"
        },
        {
          "indexed": true,
          "internalType": "address",
          "name": "spender",
          "type": "address"
        },
        {
          "indexed": false,
          "internalType": "uint256",
          "name": "value",
          "type": "uint256"
        }
      ],
      "name": "Approval",
      "type": "event"
    },
    {
      "anonymous": false,
      "inputs": [
        {
          "indexed": false,
          "internalType": "address",
          "name": "tokenIn",
          "type": "address"
        },
        {
          "indexed": true,
          "internalType": "uint256",
          "name": "amountIn",
          "type": "uint256"
        },
        {
          "indexed": false,
          "internalType": "address",
          "name": "tokenOut",
          "type": "address"
        },
        {
          "indexed": true,
          "internalType": "uint256",
          "name": "amountOut",
          "type": "uint256"
        }
      ],
      "name": "Swapped",
      "type": "event"
    },
    {
      "anonymous": false,
      "inputs": [
        {
          "indexed": true,
          "internalType": "address",
          "name": "from",
          "type": "address"
        },
        {
          "indexed": true,
          "internalType": "address",
          "name": "to",
          "type": "address"
        },
        {
          "indexed": false,
          "internalType": "uint256",
          "name": "value",
          "type": "uint256"
        }
      ],
      "name": "Transfer",
      "type": "event"
    },
    {
      "inputs": [
        {
          "internalType": "uint256",
          "name": "amount0",
          "type": "uint256"
        }
      ],
      "name": "addLiquidity",
      "outputs": [],
      "stateMutability": "nonpayable",
      "type": "function"
    },
    {
      "inputs": [
        {
          "internalType": "address",
          "name": "owner",
          "type": "address"
        },
        {
          "internalType": "address",
          "name": "spender",
          "type": "address"
        }
      ],
      "name": "allowance",
      "outputs": [
        {
          "internalType": "uint256",
          "name": "",
          "type": "uint256"
        }
      ],
      "stateMutability": "view",
      "type": "function"
    },
    {
      "inputs": [
        {
          "internalType": "address",
          "name": "spender",
          "type": "address"
        },
        {
          "internalType": "uint256",
          "name": "value",
          "type": "uint256"
        }
      ],
      "name": "approve",
      "outputs": [
        {
          "internalType": "bool",
          "name": "",
          "type": "bool"
        }
      ],
      "stateMutability": "nonpayable",
      "type": "function"
    },
    {
      "inputs": [
        {
          "internalType": "address",
          "name": "account",
          "type": "address"
        }
      ],
      "name": "balanceOf",
      "outputs": [
        {
          "internalType": "uint256",
          "name": "",
          "type": "uint256"
        }
      ],
      "stateMutability": "view",
      "type": "function"
    },
    {
      "inputs": [],
      "name": "decimals",
      "outputs": [
        {
          "internalType": "uint8",
          "name": "",
          "type": "uint8"
        }
      ],
      "stateMutability": "view",
      "type": "function"
    },
    {
      "inputs": [
        {
          "internalType": "address",
          "name": "tokenIn",
          "type": "address"
        },
        {
          "internalType": "uint256",
          "name": "amountIn",
          "type": "uint256"
        },
        {
          "internalType": "address",
          "name": "tokenOut",
          "type": "address"
        }
      ],
      "name": "getAmountOut",
      "outputs": [
        {
          "internalType": "uint256",
          "name": "",
          "type": "uint256"
        }
      ],
      "stateMutability": "view",
      "type": "function"
    },
    {
      "inputs": [
        {
          "internalType": "uint256",
          "name": "amount0",
          "type": "uint256"
        }
      ],
      "name": "getRequiredAmount1",
      "outputs": [
        {
          "internalType": "uint256",
          "name": "",
          "type": "uint256"
        }
      ],
      "stateMutability": "view",
      "type": "function"
    },
    {
      "inputs": [],
      "name": "getReserves",
      "outputs": [
        {
          "internalType": "uint256",
          "name": "reserve0",
          "type": "uint256"
        },
        {
          "internalType": "uint256",
          "name": "reserve1",
          "type": "uint256"
        }
      ],
      "stateMutability": "view",
      "type": "function"
    },
    {
      "inputs": [],
      "name": "name",
      "outputs": [
        {
          "internalType": "string",
          "name": "",
          "type": "string"
        }
      ],
      "stateMutability": "view",
      "type": "function"
    },
    {
      "inputs": [
        {
          "internalType": "address",
          "name": "tokenIn",
          "type": "address"
        },
        {
          "internalType": "uint256",
          "name": "amountIn",
          "type": "uint256"
        },
        {
          "internalType": "address",
          "name": "tokenOut",
          "type": "address"
        }
      ],
      "name": "swap",
      "outputs": [],
      "stateMutability": "nonpayable",
      "type": "function"
    },
    {
      "inputs": [],
      "name": "symbol",
      "outputs": [
        {
          "internalType": "string",
          "name": "",
          "type": "string"
        }
      ],
      "stateMutability": "view",
      "type": "function"
    },
    {
      "inputs": [
        {
          "internalType": "address",
          "name": "",
          "type": "address"
        }
      ],
      "name": "tokenBalances",
      "outputs": [
        {
          "internalType": "uint256",
          "name": "",
          "type": "uint256"
        }
      ],
      "stateMutability": "view",
      "type": "function"
    },
    {
      "inputs": [],
      "name": "totalSupply",
      "outputs": [
        {
          "internalType": "uint256",
          "name": "",
          "type": "uint256"
        }
      ],
      "stateMutability": "view",
      "type": "function"
    },
    {
      "inputs": [
        {
          "internalType": "address",
          "name": "to",
          "type": "address"
        },
        {
          "internalType": "uint256",
          "name": "value",
          "type": "uint256"
        }
      ],
      "name": "transfer",
      "outputs": [
        {
          "internalType": "bool",
          "name": "",
          "type": "bool"
        }
      ],
      "stateMutability": "nonpayable",
      "type": "function"
    },
    {
      "inputs": [
        {
          "internalType": "address",
          "name": "from",
          "type": "address"
        },
        {
          "internalType": "address",
          "name": "to",
          "type": "address"
        },
        {
          "internalType": "uint256",
          "name": "value",
          "type": "uint256"
        }
      ],
      "name": "transferFrom",
      "outputs": [
        {
          "internalType": "bool",
          "name": "",
          "type": "bool"
        }
      ],
      "stateMutability": "nonpayable",
      "type": "function"
    }
  ],
  "bytecode": "0x6101006040523480156200001257600080fd5b506040516200157a3803806200157a8339810160408190526200003591620000f9565b6040518060400160405280600781526020016626282a37b5b2b760c91b8152506040518060400160405280600381526020016213141560ea1b81525081818160039081620000849190620001d6565b506004620000938282620001d6565b505060016005555050506001600160a01b039182166080819052911660a081905260c082905260e0819052600091825260066020526040808320839055908252812055620002a2565b80516001600160a01b0381168114620000f457600080fd5b919050565b600080604083850312156200010d57600080fd5b6200011883620000dc565b91506200012860208401620000dc565b90509250929050565b634e487b7160e01b600052604160045260246000fd5b600181811c908216806200015c57607f821691505b6020821081036200017d57634e487b7160e01b600052602260045260246000fd5b50919050565b601f821115620001d157600081815260208120601f850160051c81016020861015620001ac5750805b601f850160051c820191505b81811015620001cd57828155600101620001b8565b5050505b505050565b81516001600160401b03811115620001f257620001f262000131565b6200020a8162000203845462000147565b8462000183565b602080601f831160018114620002425760008415620002295750858301515b600019600386901b1c1916600185901b178555620001cd565b600085815260208120601f198616915b82811015620002735788860151825594840194600190910190840162000252565b5085821015620002925787850151600019600388901b60f8161c191681555b5050505050600190811b01905550565b60805160a05160c05160e05161125162000329600039600081816101550152818161068f01528181610705015281816107fe015281816108ab0152610bb30152600081816101220152818161042101528181610568015281816106e0015281816107c3015281816108700152610b80015260006105cd015260006104a501526112516000f3fe608060405234801561001057600080fd5b50600436106100f55760003560e01c8063523fba7f1161009757806395d89b411161006657806395d89b411461026c578063a9059cbb14610274578063dd62ed3e14610287578063ff9c8ac6146102c057600080fd5b8063523fba7f146101fd5780636d069a671461021d57806370a0823114610230578063929f8c751461025957600080fd5b806318160ddd116100d357806318160ddd146101b457806323b872dd146101c6578063313ce567146101d957806351c6590a146101e857600080fd5b806306fdde03146100fa5780630902f1ac14610118578063095ea7b314610191575b600080fd5b6101026102d3565b60405161010f9190610fd0565b60405180910390f35b6001600160a01b037f00000000000000000000000000000000000000000000000000000000000000008116600090815260066020526040808220547f000000000000000000000000000000000000000000000000000000000000000090931682529020546040805192835260208301919091520161010f565b6101a461019f36600461103a565b610365565b604051901515815260200161010f565b6002545b60405190815260200161010f565b6101a46101d4366004611064565b61037f565b6040516012815260200161010f565b6101fb6101f63660046110a0565b6103a3565b005b6101b861020b3660046110b9565b60066020526000908152604090205481565b6101fb61022b3660046110db565b61076a565b6101b861023e3660046110b9565b6001600160a01b031660009081526020819052604090205490565b6101b86102673660046110a0565b610b76565b610102610c15565b6101a461028236600461103a565b610c24565b6101b8610295366004611117565b6001600160a01b03918216600090815260016020908152604080832093909416825291909152205490565b6101b86102ce3660046110db565b610c32565b6060600380546102e29061114a565b80601f016020809104026020016040519081016040528092919081815260200182805461030e9061114a565b801561035b5780601f106103305761010080835404028352916020019161035b565b820191906000526020600020905b81548152906001019060200180831161033e57829003601f168201915b5050505050905090565b600033610373818585610c82565b60019150505b92915050565b60003361038d858285610c8f565b610398858585610d0e565b506001949350505050565b6103ab610d6d565b600081116104005760405162461bcd60e51b815260206004820152601d60248201527f416d6f756e74206d7573742062652067726561746572207468616e203000000060448201526064015b60405180910390fd5b600061040b82610b76565b905060008061041960025490565b1115610476577f00000000000000000000000000000000000000000000000000000000000000006001600160a01b0316600090815260066020526040902054600254610465908561119a565b61046f91906111b1565b9050610479565b50815b6104833382610d97565b6040516323b872dd60e01b8152336004820152306024820152604481018490527f00000000000000000000000000000000000000000000000000000000000000006001600160a01b0316906323b872dd906064016020604051808303816000875af11580156104f6573d6000803e3d6000fd5b505050506040513d601f19601f8201168201806040525081019061051a91906111d3565b61055e5760405162461bcd60e51b8152602060048201526015602482015274151c985b9cd9995c88105b1c1a184819985a5b1959605a1b60448201526064016103f7565b6001600160a01b037f000000000000000000000000000000000000000000000000000000000000000016600090815260066020526040812080548592906105a69084906111f5565b90915550506040516323b872dd60e01b8152336004820152306024820152604481018390527f00000000000000000000000000000000000000000000000000000000000000006001600160a01b0316906323b872dd906064016020604051808303816000875af115801561061e573d6000803e3d6000fd5b505050506040513d601f19601f8201168201806040525081019061064291906111d3565b6106855760405162461bcd60e51b8152602060048201526014602482015273151c985b9cd9995c8810995d184819985a5b195960621b60448201526064016103f7565b6001600160a01b037f000000000000000000000000000000000000000000000000000000000000000016600090815260066020526040812080548492906106cd9084906111f5565b9091555050604080516001600160a01b037f0000000000000000000000000000000000000000000000000000000000000000811682527f00000000000000000000000000000000000000000000000000000000000000001660208201528391859184917f86c3929a230b573aa47cd83759aed11b800d147abc23e246dfeb5ebbd7a110e3910160405180910390a450506107676001600555565b50565b610772610d6d565b806001600160a01b0316836001600160a01b0316036107c15760405162461bcd60e51b815260206004820152600b60248201526a53616d6520746f6b656e7360a81b60448201526064016103f7565b7f00000000000000000000000000000000000000000000000000000000000000006001600160a01b0316836001600160a01b0316148061083257507f00000000000000000000000000000000000000000000000000000000000000006001600160a01b0316836001600160a01b0316145b61086e5760405162461bcd60e51b815260206004820152600d60248201526c24b73b30b634b2103a37b5b2b760991b60448201526064016103f7565b7f00000000000000000000000000000000000000000000000000000000000000006001600160a01b0316816001600160a01b031614806108df57507f00000000000000000000000000000000000000000000000000000000000000006001600160a01b0316816001600160a01b0316145b61091b5760405162461bcd60e51b815260206004820152600d60248201526c24b73b30b634b2103a37b5b2b760991b60448201526064016103f7565b600082116109595760405162461bcd60e51b815260206004820152600b60248201526a16995c9bc8185b5bdd5b9d60aa1b60448201526064016103f7565b6000610966848484610c32565b6040516323b872dd60e01b8152336004820152306024820152604481018590529091506001600160a01b038516906323b872dd906064016020604051808303816000875af11580156109bc573d6000803e3d6000fd5b505050506040513d601f19601f820116820180604052508101906109e091906111d3565b610a1a5760405162461bcd60e51b815260206004820152600b60248201526a14ddd85c0811985a5b195960aa1b60448201526064016103f7565b60405163a9059cbb60e01b8152336004820152602481018290526001600160a01b0383169063a9059cbb906044016020604051808303816000875af1158015610a67573d6000803e3d6000fd5b505050506040513d601f19601f82011682018060405250810190610a8b91906111d3565b610ac55760405162461bcd60e51b815260206004820152600b60248201526a14ddd85c0811985a5b195960aa1b60448201526064016103f7565b6001600160a01b03841660009081526006602052604081208054859290610aed9084906111f5565b90915550506001600160a01b03821660009081526006602052604081208054839290610b1a908490611208565b9091555050604080516001600160a01b03808716825284166020820152829185917fdb587d878116df0bdd4fe154699aa2c5f439da001cc811dfd05d9f589fc5a8ee910160405180910390a350610b716001600555565b505050565b6001600160a01b037f00000000000000000000000000000000000000000000000000000000000000008116600090815260066020526040808220547f00000000000000000000000000000000000000000000000000000000000000009093168252812054909190811580610be8575080155b15610c0057610bf860028561119a565b949350505050565b81610c0b828661119a565b610bf891906111b1565b6060600480546102e29061114a565b600033610373818585610d0e565b6001600160a01b0380821660009081526006602052604080822054928616825281205490919082610c6386836111f5565b610c6d878561119a565b610c7791906111b1565b979650505050505050565b610b718383836001610dd1565b6001600160a01b03838116600090815260016020908152604080832093861683529290522054600019811015610d085781811015610cf957604051637dc7a0d960e11b81526001600160a01b038416600482015260248101829052604481018390526064016103f7565b610d0884848484036000610dd1565b50505050565b6001600160a01b038316610d3857604051634b637e8f60e11b8152600060048201526024016103f7565b6001600160a01b038216610d625760405163ec442f0560e01b8152600060048201526024016103f7565b610b71838383610ea6565b600260055403610d9057604051633ee5aeb560e01b815260040160405180910390fd5b6002600555565b6001600160a01b038216610dc15760405163ec442f0560e01b8152600060048201526024016103f7565b610dcd60008383610ea6565b5050565b6001600160a01b038416610dfb5760405163e602df0560e01b8152600060048201526024016103f7565b6001600160a01b038316610e2557604051634a1406b160e11b8152600060048201526024016103f7565b6001600160a01b0380851660009081526001602090815260408083209387168352929052208290558015610d0857826001600160a01b0316846001600160a01b03167f8c5be1e5ebec7d5bd14f71427d1e84f3dd0314c0f7b2291e5b200ac8c7c3b92584604051610e9891815260200190565b60405180910390a350505050565b6001600160a01b038316610ed1578060026000828254610ec691906111f5565b90915550610f439050565b6001600160a01b03831660009081526020819052604090205481811015610f245760405163391434e360e21b81526001600160a01b038516600482015260248101829052604481018390526064016103f7565b6001600160a01b03841660009081526020819052604090209082900390555b6001600160a01b038216610f5f57600280548290039055610f7e565b6001600160a01b03821660009081526020819052604090208054820190555b816001600160a01b0316836001600160a01b03167fddf252ad1be2c89b69c2b068fc378daa952ba7f163c4a11628f55a4df523b3ef83604051610fc391815260200190565b60405180910390a3505050565b600060208083528351808285015260005b81811015610ffd57858101830151858201604001528201610fe1565b506000604082860101526040601f19601f8301168501019250505092915050565b80356001600160a01b038116811461103557600080fd5b919050565b6000806040838503121561104d57600080fd5b6110568361101e565b946020939093013593505050565b60008060006060848603121561107957600080fd5b6110828461101e565b92506110906020850161101e565b9150604084013590509250925092565b6000602082840312156110b257600080fd5b5035919050565b6000602082840312156110cb57600080fd5b6110d48261101e565b9392505050565b6000806000606084860312156110f057600080fd5b6110f98461101e565b92506020840135915061110e6040850161101e565b90509250925092565b6000806040838503121561112a57600080fd5b6111338361101e565b91506111416020840161101e565b90509250929050565b600181811c9082168061115e57607f821691505b60208210810361117e57634e487b7160e01b600052602260045260246000fd5b50919050565b634e487b7160e01b600052601160045260246000fd5b808202811582820484141761037957610379611184565b6000826111ce57634e487b7160e01b600052601260045260246000fd5b500490565b6000602082840312156111e557600080fd5b815180151581146110d457600080fd5b8082018082111561037957610379611184565b818103818111156103795761037961118456fea2646970667358221220e2453a33793d67e86e96c3c6459ca6abb86a3e9a53352185e11afeacd6cbfeb664736f6c63430008140033",
  "linkReferences": {},
  "deployedLinkReferences": {}
}